{
  "contractName": "TokenReceiver",
  "abi": [
    {
      "inputs": [],
      "name": "token",
      "outputs": [
        {
          "internalType": "contract IERC20",
          "name": "",
          "type": "address"
        }
      ],
      "stateMutability": "view",
      "type": "function",
      "constant": true
    },
    {
      "inputs": [
        {
          "internalType": "address",
          "name": "_asset",
          "type": "address"
        }
      ],
      "name": "setToken",
      "outputs": [],
      "stateMutability": "nonpayable",
      "type": "function"
    },
    {
      "inputs": [
        {
          "internalType": "uint256",
          "name": "_amount",
          "type": "uint256"
        }
      ],
      "name": "withdraw",
      "outputs": [],
      "stateMutability": "nonpayable",
      "type": "function"
    }
  ],
  "bytecode": "0x608060405234801561001057600080fd5b506101a0806100206000396000f3fe608060405234801561001057600080fd5b50600436106100415760003560e01c8063144fa6d7146100465780632e1a7d4d1461006e578063fc0c546a1461008b575b600080fd5b61006c6004803603602081101561005c57600080fd5b50356001600160a01b03166100af565b005b61006c6004803603602081101561008457600080fd5b50356100d1565b61009361015b565b604080516001600160a01b039092168252519081900360200190f35b600080546001600160a01b0319166001600160a01b0392909216919091179055565b60008054604080516323b872dd60e01b81523360048201523060248201526044810185905290516001600160a01b03909216926323b872dd926064808401936020939083900390910190829087803b15801561012c57600080fd5b505af1158015610140573d6000803e3d6000fd5b505050506040513d602081101561015657600080fd5b505050565b6000546001600160a01b03168156fea2646970667358221220723f517431255bdf2d6c5d969f2464839defbdf63e4e8ed428d134f04a5e92d564736f6c63430006060033",
  "immutableReferences": {},
  "source": "pragma solidity ^0.6.6;\n\nimport \"./MyToken.sol\";\nimport \"@openzeppelin/contracts/token/ERC20/IERC20.sol\";\n\ncontract TokenReceiver {\n    IERC20 public token;\n    \n    function setToken(address _asset) public {\n        token = IERC20(_asset);\n    }\n\n    function withdraw(uint _amount) public {\n        token.transferFrom(msg.sender, address(this), _amount);\n    }\n}",
  "sourcePath": "/Users/macbookpro4eric/Projects/blockchain/project2.5_ERC20-rev/contracts/TokenReceiver.sol",
  "compiler": {
    "name": "solc",
    "version": "0.6.6+commit.6c089d02.Emscripten.clang"
  },
  "schemaVersion": "3.3.4",
  "updatedAt": "2021-04-10T09:01:42.190Z",
  "networkType": "ethereum",
  "devdoc": {
    "methods": {}
  },
  "userdoc": {
    "methods": {}
  }
}